:100000000C947C000C94A4000C94A4000C94A40008
:100010000C94A4000C94A4000C94A4000C94A400D0
:100020000C94A4000C94A4000C94A4000C94A400C0
:100030000C94A4000C94A4000C94A4000C94A400B0
:100040000C94BF020C94A4000C94A4000C94A40083
:100050000C94A4000C94A4000C94A4000C94A40090
:100060000C94A4000C94A4009D02A40279027E02C8
:1000700099028002840286029D02920288028C020A
:10008000940296029B02A4029D02A4029D02A40275
:100090009D02A4029D02A4029D02A4020000000091
:1000A000240027002A0000000000250028002B0063
:1000B00000000000230026002900040404040404B6
:1000C0000404020202020202030303030303010207
:1000D00004081020408001020408102001020408D6
:1000E00010200000000800020100000304070000C7
:1000F000000000000000CF0311241FBECFEFD8E0A6
:10010000DEBFCDBF21E0AAE0B1E001C01D92A53263
:10011000B207E1F711E0A0E0B1E0E0EFFCE002C0DF
:1001200005900D92AA30B107D9F710E0CCE7D0E0E6
:1001300004C02197FE010E946104CB37D107C9F7A3
:100140000E9409030C9476060C940000833081F021
:1001500028F4813099F08230A1F008958730A9F019
:100160008830B9F08430D1F4809180008F7D03C055
:10017000809180008F7780938000089584B58F7779
:1001800002C084B58F7D84BD08958091B0008F77C3
:1001900003C08091B0008F7D8093B0000895CF930D
:1001A000DF93409118015091190160911A017091EB
:1001B0001B012FB7F89480910F0190911001A0912D
:1001C0001101B09112012FBF84179507A607B70739
:1001D00008F450C02091130130E0F901EE51FF4FB7
:1001E0008491F901E253FF4FD491F901E654FF4F96
:1001F000C491CC23A1F081110E94A600EC2FF0E065
:10020000EE0FFF1FE055FF4FA591B491EC91ED2348
:1002100031E020E009F430E0832F922F02C080E02B
:1002200090E02091160130E08217930719F12FB763
:10023000F89480910F0190911001A0911101B0915B
:1002400012012FBF2091140130911501820F931FCD
:10025000A11DB11D8093180190931901A0931A015B
:10026000B0931B018091160191E0892780931601BC
:100270009093170180911601DF91CF9108951F93FC
:10028000CF93DF93282F30E0F901EE51FF4F849197
:10029000F901E253FF4FD491F901E654FF4FC491A5
:1002A000CC23C9F0162F81110E94A600EC2FF0E09C
:1002B000EE0FFF1FEA55FF4FA591B4918FB7F89449
:1002C000111105C09C91ED2FE095E92302C0EC913E
:1002D000ED2BEC938FBFDF91CF911F9108953FB726
:1002E000F89480910B0190910C01A0910D01B091B7
:1002F0000E0126B5A89B05C02F3F19F00196A11D40
:10030000B11D3FBFBA2FA92F982F8827820F911DAB
:10031000A11DB11DBC01CD0142E0660F771F881FF2
:10032000991F4A95D1F708958F929F92AF92BF92ED
:10033000CF92DF92EF92FF926B017C010E946F01DE
:100340004B015C01C114D104E104F104F1F00E94FD
:100350006F01DC01CB0188199909AA09BB09883E04
:100360009340A105B10570F321E0C21AD108E1085C
:10037000F10888EE880E83E0981EA11CB11CC11400
:10038000D104E104F10419F7DDCFFF90EF90DF9085
:10039000CF90BF90AF909F908F90089520911D01B6
:1003A00030911E0140911F0150912001A3E0B0E067
:1003B0000E9410040C9494010F931F93CF93DF932A
:1003C00000E010E0C82FD0E00C171D070CF561E02D
:1003D00080911C010E943F0160911D0170911E01DE
:1003E00080911F01909120010E94940160E0809112
:1003F0001C010E943F0160911D0170911E018091BE
:100400001F01909120010E9494010F5F1F4FDCCFCC
:10041000DF91CF911F910F9108950F931F93CF9369
:10042000DF9300E010E0C82FD0E00C171D072CF57B
:1004300061E080911C010E943F0120911D013091DB
:100440001E0140911F0150912001A3E0B0E00E94E5
:1004500010040E94940160E080911C010E943F0101
:1004600060911D0170911E0180911F0190912001EA
:100470000E9494010F5F1F4FD8CFDF91CF911F9142
:100480000F9108950F931F93CF93DF938C01FC017D
:10049000C081D181209719F4C0E0D0E010C08881DC
:1004A0008823D1F3082E000C990B0E945E068993D5
:1004B000F6CFF80180819181009741F42196F801EF
:1004C00084819581C817D907A0F347C0FC01EC0FC0
:1004D000FD1FE0814E2FEE0F550B660B770BFA01D7
:1004E000E156F109EA31F10548F7EC5CFF4F0C9455
:1004F000610481E00E940D0281E003C081E010C030
:1005000082E00E94DC0112C082E011C084E020C0C1
:1005100081E00E940D0211C081E00E94DC0183E0B5
:100520000E940D0282E014C082E00BC081E00E94B4
:100530000D0281E00DC083E004C081E00E94DC0177
:1005400081E00E940D0206C081E00E940D0283E05E
:100550000E94DC010E94CE01B1CF20911D0130919B
:100560001E0140911F0150912001A6E0B0E00E94C1
:100570001004DF91CF911F910F910C9494011F9261
:100580000F920FB60F9211242F933F938F939F9347
:10059000AF93BF9380910F0190911001A091110131
:1005A000B091120130910A0123E0230F2D3720F47E
:1005B0000196A11DB11D05C026E8230F0296A11DBD
:1005C000B11D20930A0180930F0190931001A09315
:1005D0001101B093120180910B0190910C01A09137
:1005E0000D01B0910E010196A11DB11D80930B016B
:1005F00090930C01A0930D01B0930E01BF91AF91A8
:100600009F918F913F912F910F900FBE0F901F9050
:100610001895CF93DF9300D000D000D0CDB7DEB7D0
:10062000789484B5826084BD84B5816084BD85B5CD
:10063000826085BD85B5816085BD80916E008160D9
:1006400080936E001092810080918100826080937F
:100650008100809181008160809381008091800081
:100660008160809380008091B10084608093B100AC
:100670008091B00081608093B00080917A008460A6
:1006800080937A0080917A00826080937A008091D2
:100690007A00816080937A0080917A0080688093EC
:1006A0007A001092C1008091130190E0FC01E253A6
:1006B000FF4F2491FC01E654FF4F84918823C9F039
:1006C00090E0880F991FFC01E456FF4F459154912B
:1006D000FC01EA55FF4FA591B4919FB7F894FA0138
:1006E0003081822F809583238083EC912E2B2C9355
:1006F0009FBF80E0E82E80E0F82E03E010E00E942B
:10070000CF0081113EC0809117018823D1F1109252
:1007100017010E94CF0081112EC01A8219821C82FB
:100720001B821E821D8264E070E080E090E00E94E7
:100730009405009759F09A8389831C830B832D813C
:100740003E81232B29F5FC01108222C089819A81E8
:10075000009711F00E94FC041A8219821E821D82E9
:100760001C821B82CE0101960E94420289819A81DD
:100770000E94FC04CECF80911701882371F2109261
:100780001701E114F10409F4BACF0E940000B7CFB9
:100790001E830D8366E071E00E946F06E3CF82E066
:1007A0008093130184EF91E09093150180931401DD
:1007B00081E0809316011092170110921801109297
:1007C000190110921A0110921B01EBEDF0E0249137
:1007D000E7ECF0E08491882399F090E0880F991F6E
:1007E000FC01E456FF4FA591B491FC01EA55FF4F7F
:1007F000859194918FB7F894EC91E22BEC938FBF95
:100800008DE080931C0188EC90E0A0E0B0E0809344
:100810001D0190931E01A0931F01B0932001089524
:100820000E945204A59F900DB49F900DA49F800D2F
:10083000911D112408952F923F924F925F926F92D3
:100840007F928F929F92AF92BF92CF92DF92EF9260
:10085000FF920F931F93CF93DF93CDB7DEB7CA1BE1
:10086000DB0B0FB6F894DEBF0FBECDBF09942A880C
:10087000398848885F846E847D848C849B84AA84B4
:10088000B984C884DF80EE80FD800C811B81AA8141
:10089000B981CE0FD11D0FB6F894DEBF0FBECDBF0C
:1008A000ED010895A29FB001B39FC001A39F700DF9
:1008B000811D1124911DB29F700D811D1124911D68
:1008C0000895EE0FFF1F0590F491E02D0994CF934A
:1008D000DF938230910510F482E090E0E0912301F3
:1008E000F091240120E030E0C0E0D0E0309711F139
:1008F0004081518148175907C0F04817590761F4E2
:1009000082819381209719F09B838A832BC09093D7
:1009100024018093230126C02115310519F04217C7
:10092000530718F49A01BE01DF01EF010280F38141
:10093000E02DDCCF2115310509F1281B390B2430BE
:10094000310590F412968D919C9113976115710564
:1009500021F0FB019383828304C090932401809350
:100960002301FD01329644C0FD01E20FF31F819384
:100970009193225031092D933C933AC0209121014B
:1009800030912201232B41F4209102013091030187
:100990003093220120932101209100013091010127
:1009A0002115310541F42DB73EB740910401509116
:1009B0000501241B350BE0912101F0912201E21782
:1009C000F307A0F42E1B3F0B2817390778F0AC0172
:1009D0004E5F5F4F2417350748F04E0F5F1F50934F
:1009E0002201409321018193919302C0E0E0F0E065
:1009F000CF01DF91CF9108950F931F93CF93DF9392
:100A0000009709F48CC0FC01329713821282009186
:100A10002301109124010115110581F420813181F8
:100A2000820F931F2091210130912201281739074D
:100A300079F5F0932201E093210171C0D80140E0E3
:100A400050E0AE17BF0750F412962D913C911397CA
:100A5000AD012115310509F1D901F3CF9D01DA016D
:100A60003383228360817181860F971F82179307DA
:100A700069F4EC0128813981260F371F2E5F3F4F23
:100A8000318320838A819B8193838283452B29F440
:100A9000F0932401E093230142C01396FC93EE935C
:100AA0001297ED01499159919E01240F351FE217CC
:100AB000F30771F480819181840F951F029611963E
:100AC0009C938E938281938113969C938E9312971D
:100AD000E0E0F0E0D80112968D919C911397009779
:100AE00019F0F8018C01F6CF8D919C9198012E5F41
:100AF0003F4F820F931F209121013091220128172F
:100B0000390769F4309729F41092240110922301D7
:100B100002C0138212821093220100932101DF91FF
:100B2000CF911F910F910895A0E0B0E0EAE9F5E0C0
:100B30000C941F04EC01009721F4CB010E94670480
:100B4000B8C0FC01E60FF71F9C0122503109E217E3
:100B5000F30708F4ACC0D9010D911C911197061749
:100B60001707B0F00530110508F49FC0C8010497BD
:100B70008617970708F499C002501109061B170B36
:100B8000019311936D937C93CF010E94FC048DC05F
:100B90005B01A01AB10A4C01800E911EA0912301A5
:100BA000B091240140E050E0E12CF12C109709F4C1
:100BB0004AC0A815B905D1F56D907C9011976301D5
:100BC00082E0C80ED11CCA14DB0480F1A3014A19CB
:100BD0005B096A0182E0C80ED11C1296BC90129784
:100BE0001396AC91B5E0CB16D10440F0B282A3834A
:100BF00051834083D9016D937C930AC00E5F1F4FD0
:100C0000C301800F911FF90191838083EB2DFA2F8F
:100C1000E114F10431F0D7011396FC93EE9312978F
:100C200044C0F0932401E09323013FC08D919C9137
:100C300011974817590708F4AC017D0112960D90E1
:100C4000BC91A02DB3CF80912101909122018815F4
:100C50009905E1F446175707C8F480910001909177
:100C60000101009741F48DB79EB740910401509166
:100C70000501841B950BE817F907C8F4F0932201CE
:100C8000E0932101F901718360830FC0CB010E94C1
:100C900067047C01009759F0A801BE010E94660616
:100CA000CE010E94FC04C70104C0CE0102C080E056
:100CB00090E0CDB7DEB7EEE00C943B0491110895BF
:100CC00081548A5108F4805E855A0895FB01DC0145
:100CD00002C001900D9241505040D8F70895FB0199
:100CE000DC0101900D920020E1F70895F894FFCF08
:0A0CF000000025018000736F7300FF
:00000001FF
