:100000000C947D000C94A5000C94A5000C94A50004
:100010000C94A5000C94A5000C94A5000C94A500CC
:100020000C94A5000C94A5000C94A5000C94A500BC
:100030000C94A5000C94A5000C94A5000C94A500AC
:100040000C9489040C94A5000C94F9040C94D3042A
:100050000C94A5000C94A5000C94A5000C94A5008C
:100060000C94A5000C94A500F303D403D803DC037F
:10007000FB03DE03EE03E003F3031D04E203E403EA
:100080000404F803E903EB03F003F503FD030C0498
:100090000904FF030104060410041A040000000010
:1000A000240027002A0000000000250028002B0063
:1000B00000000000230026002900040404040404B6
:1000C0000404020202020202030303030303010207
:1000D00004081020408001020408102001020408D6
:1000E00010200000000800020100000304070000C7
:1000F0000000000000002B05A10611241FBECFEF59
:10010000D8E0DEBFCDBF21E0A4E3B1E001C01D9285
:10011000A43FB207E1F711E0A0E0B1E0EEE3F2E1C5
:1001200002C005900D92A433B107D9F710E0CCE7D7
:10013000D0E004C02197FE010E94F806CB37D1071A
:10014000C9F70E948B050C9412090C9400008330AF
:1001500081F028F4813099F08230A1F00895873041
:10016000A9F08830B9F08430D1F4809180008F7D7F
:1001700003C0809180008F7780938000089584B5BC
:100180008F7702C084B58F7D84BD08958091B000C3
:100190008F7703C08091B0008F7D8093B000089569
:1001A000CF93DF934091EC015091ED016091EE010E
:1001B0007091EF012FB7F89480913A0190913B0133
:1001C000A0913C01B0913D012FBF84179507A60770
:1001D000B70708F450C02091E70130E0F901EE5173
:1001E000FF4F8491F901E253FF4FD491F901E65496
:1001F000FF4FC491CC23A1F081110E94A700EC2FE6
:10020000F0E0EE0FFF1FE055FF4FA591B491EC9188
:10021000ED2331E020E009F430E0832F922F02C07B
:1002200080E090E02091EA0130E08217930719F115
:100230002FB7F89480913A0190913B01A0913C0135
:10024000B0913D012FBF2091E8013091E901820F6B
:10025000931FA11DB11D8093EC019093ED01A0931C
:10026000EE01B093EF018091EA0191E0892780933C
:10027000EA019093EB018091EA01DF91CF9108951B
:100280001F93CF93DF93282F30E0F901EE51FF4FFA
:100290008491F901E253FF4FD491F901E654FF4FE5
:1002A000C491CC23C9F0162F81110E94A700EC2F16
:1002B000F0E0EE0FFF1FEA55FF4FA591B4918FB705
:1002C000F894111105C09C91ED2FE095E92302C02F
:1002D000EC91ED2BEC938FBFDF91CF911F9108959F
:1002E000CF93DF9390E0FC01E253FF4F2491FC0198
:1002F000E654FF4F8491882361F190E0880F991FA5
:10030000FC01E456FF4FC591D491FC01EA55FF4F23
:10031000A591B491611109C09FB7F8948881209587
:1003200082238883EC912E230BC0623061F49FB747
:10033000F8943881822F809583238883EC912E2B2B
:100340002C939FBF06C08FB7F894E8812E2B28838B
:100350008FBFDF91CF9108953FB7F8948091360118
:1003600090913701A0913801B091390126B5A89B31
:1003700005C02F3F19F00196A11DB11D3FBFBA2F37
:10038000A92F982F8827820F911DA11DB11DBC0197
:10039000CD0142E0660F771F881F991F4A95D1F75C
:1003A00008958F929F92AF92BF92CF92DF92EF9279
:1003B000FF926B017C010E94AC014B015C01C114F6
:1003C000D104E104F104F1F00E94AC01DC01CB01A5
:1003D00088199909AA09BB09883E9340A105B1056E
:1003E00070F321E0C21AD108E108F10888EE880E06
:1003F00083E0981EA11CB11CC114D104E104F104D6
:1004000019F7DDCFFF90EF90DF90CF90BF90AF90C6
:100410009F908F9008952091E3013091E4014091E5
:10042000E5015091E601A3E0B0E00E94A7060C941C
:10043000D1010F931F93CF93DF9300E010E0C82FFB
:10044000D0E00C171D075CF561E08091E1010E948E
:10045000400161E08091E2010E9440016091E3016E
:100460007091E4018091E5019091E6010E94D10133
:1004700060E08091E1010E94400160E08091E20132
:100480000E9440016091E3017091E4018091E501D7
:100490009091E6010E94D1010F5F1F4FD2CFDF91F3
:1004A000CF911F910F9108950F931F93CF93DF93D7
:1004B00000E010E0C82FD0E00C171D077CF561E0CC
:1004C0008091E1010E94400161E08091E2010E947F
:1004D00040012091E3013091E4014091E501509108
:1004E000E601A3E0B0E00E94A7060E94D10160E00F
:1004F0008091E1010E94400160E08091E2010E9450
:1005000040016091E3017091E4018091E5019091D7
:10051000E6010E94D1010F5F1F4FCECFDF91CF9137
:100520001F910F910895CF92DF92EF92FF920F9358
:100530001F93CF93DF936C017A018B01C0E0D0E071
:10054000CE15DF0589F0D8016D918D01D601ED91B1
:10055000FC910190F081E02DC6010995892B11F4E1
:100560007E0102C02196ECCFC701DF91CF911F9190
:100570000F91FF90EF90DF90CF900895089580E065
:1005800090E00895FC01538D448D252F30E0842F99
:1005900090E0821B930B541710F0CF9608950197AB
:1005A0000895FC01918D828D981761F0828DDF0195
:1005B000A80FB11D5D968C91928D9F5F9F73928F56
:1005C00090E008958FEF9FEF0895FC01918D828D4B
:1005D000981731F0828DE80FF11D858D90E0089518
:1005E0008FEF9FEF0895FC01918D228D892F90E070
:1005F000805C9F4F821B91098F73992708958EE32A
:1006000091E00E94F30221E0892B09F420E0822F7F
:100610000895FC01848DDF01A80FB11DA35ABF4FBF
:100620002C91848D90E001968F739927848FA689F1
:10063000B7892C93A089B1898C9180648C93938D18
:10064000848D981306C00288F389E02D80818F7D08
:1006500080830895EF92FF920F931F93CF93DF93C0
:10066000EC0181E0888F9B8D8C8D981305C0E88903
:10067000F989808185FD24C0F62E0B8D10E00F5F77
:100680001F4F0F731127E02E8C8DE8120CC00FB690
:1006900007FCFACFE889F989808185FFF5CFCE0183
:1006A0000E940903F1CF8B8DFE01E80FF11DE35A83
:1006B000FF4FF0820B8FEA89FB898081806207C03F
:1006C000EE89FF896083E889F9898081806480836D
:1006D00081E090E0DF91CF911F910F91FF90EF901B
:1006E0000895CF93DF93EC01888D8823C9F0EA89C0
:1006F000FB89808185FD05C0A889B9898C9186FD1B
:100700000FC00FB607FCF5CF808185FFF2CFA88917
:10071000B9898C9185FFEDCFCE010E940903E7CF07
:10072000DF91CF91089580E090E0892B29F00E941D
:10073000FF0281110C94000008950F931F93CF9333
:10074000DF938C01FC01C081D181209719F4C0E0B6
:10075000D0E010C088818823D1F3082E000C990BBB
:100760000E94FA088993F6CFF80180819181009761
:1007700041F42196F80184819581C817D907A0F327
:1007800062C0FC01EC0FFD1FE0814E2FEE0F550BF8
:10079000660B770BFA01E156F109EA31F10548F7EA
:1007A000EC5CFF4F0C94F80681E00E94540225C0D7
:1007B00081E00E94540219C081E03DC082E016C071
:1007C00084E03CC081E00DC081E00E94190283E01A
:1007D00032C083E022C081E00E94190282E009C099
:1007E00082E00E94540281E015C081E00E9419025B
:1007F00081E00E94540281E021C083E01FC083E0B9
:1008000009C081E00E94190282E007C081E00E94D5
:10081000540282E00E94190281E00E94540210C03A
:1008200081E00E94540281E00E94190282E00E944D
:1008300054029FCF82E00E94540282E00E9419027B
:100840000E940B0296CF2091E3013091E401409188
:10085000E5015091E601A6E0B0E00E94A706DF9115
:10086000CF911F910F910C94D1010E94F5080F9325
:100870001F93CF93DF93EC0188819981009729F032
:100880002A813B812617370788F48B016F5F7F4FE2
:100890000E942B08009761F0998388831B830A8349
:1008A0002C813D81232B11F4FC01108281E001C0D9
:1008B00080E0DF91CF911F910F910895EF92FF9209
:1008C0000F931F93CF93DF93EC017B018A01BA0151
:1008D0000E9437042881398181110DC0211531050D
:1008E00019F0C9010E949307198218821D821C8287
:1008F0001B821A8206C01D830C83B701C9010E94A6
:100900000B09CE01DF91CF911F910F91FF90EF90D6
:1009100008951F920F920FB60F9211242F933F93B9
:100920008F939F93AF93BF9380913A0190913B0136
:10093000A0913C01B0913D013091350123E0230F9E
:100940002D3720F40196A11DB11D05C026E8230F07
:100950000296A11DB11D2093350180933A01909319
:100960003B01A0933C01B0933D01809136019091F1
:100970003701A0913801B09139010196A11DB11D37
:100980008093360190933701A0933801B0933901D9
:10099000BF91AF919F918F913F912F910F900FBE7B
:1009A0000F901F9018951F920F920FB60F9211245F
:1009B0002F933F934F935F936F937F938F939F9367
:1009C000AF93BF93EF93FF938EE391E00E940903EF
:1009D000FF91EF91BF91AF919F918F917F916F9117
:1009E0005F914F913F912F910F900FBE0F901F90ED
:1009F00018951F920F920FB60F9211242F938F9379
:100A00009F93EF93FF93E0914E01F0914F0180810E
:100A1000E0915401F091550182FD12C090818091C6
:100A200057018F5F8F7320915801821751F0E09129
:100A30005701F0E0E25CFE4F958F8093570101C0B3
:100A40008081FF91EF919F918F912F910F900FBE19
:100A50000F901F901895EEE3F1E01382128288EE5A
:100A600093E0A0E0B0E084839583A683B7838AE017
:100A700091E09183808385EC90E09587848784EC76
:100A800090E09787868780EC90E0918B808B81EC5B
:100A900090E0938B828B82EC90E0958B848B86EC3C
:100AA00090E0978B868B118E128E138E148EE7EE4C
:100AB000F1E082E0808384EF91E09283818381E0A2
:100AC00083831482158216821782108661E08DE07E
:100AD0000E94700161E08AE00E947001E1EEF1E0A5
:100AE0008DE0808388EC90E0A0E0B0E08283938387
:100AF000A483B5838AE08183EBEDF1E0118210825B
:100B0000138212821582148240E050E062E371E0A9
:100B1000CF010C945E04CF93DF9300D000D000D0BF
:100B2000CDB7DEB7789484B5826084BD84B581602A
:100B300084BD85B5826085BD85B5816085BD8091A8
:100B40006E00816080936E00109281008091810020
:100B50008260809381008091810081608093810018
:100B6000809180008160809380008091B1008460DA
:100B70008093B1008091B00081608093B00080913B
:100B80007A00846080937A0080917A0082608093FA
:100B90007A0080917A00816080937A0080917A0057
:100BA000806880937A001092C10062E08091E70132
:100BB0000E947001E0914E01F0914F0182E080832C
:100BC000E0914A01F0914B011082E0914C01F091CB
:100BD0004D018FEC808310925601E0915201F0910B
:100BE000530186E08083E0915001F09151018081B2
:100BF00080618083E0915001F09151018081886093
:100C00008083E0915001F091510180818068808360
:100C1000E0915001F091510180818F7D8083FF240C
:100C2000F39480913401811105C00E94D00081119C
:100C300085C03EC047E150E068E171E08EE391E09D
:100C40000E94930242E050E060E371E08EE391E0A5
:100C50000E9493028EE391E00E94F3021816190697
:100C600024F78EE391E00E94D10289831A820091D9
:100C7000DF011091E0010F5F1F4FB8018BED91E094
:100C80000E943704882331F32091DB013091DC018D
:100C90008091DF019091E001BE016F5F7F4F820F75
:100CA000931F0E940B091093E0010093DF01D2CF44
:100CB0008091EB01882309F441C01092EB018091EF
:100CC000DF019091E001892BC9F1E091DB01F09106
:100CD000DC018081882391F10E94D000811128C01D
:100CE0001A8219821C821B821E821D826091DB0186
:100CF0007091DC016115710541F04091DF01509167
:100D0000E001CE0101960E945E04CE0101960E9490
:100D10009D0389819A810E94930740E050E062E33D
:100D200071E08BED91E00E945E04F0923401D4CF2B
:100D30008091EB018823A1F21092EB010E949303B2
:100D400070CF8091DB019091DC010C9493070E949D
:100D5000E906A59F900DB49F900DA49F800D911D55
:100D6000112408952F923F924F925F926F927F923B
:100D70008F929F92AF92BF92CF92DF92EF92FF92AB
:100D80000F931F93CF93DF93CDB7DEB7CA1BDB0B57
:100D90000FB6F894DEBF0FBECDBF09942A883988FC
:100DA00048885F846E847D848C849B84AA84B98403
:100DB000C884DF80EE80FD800C811B81AA81B9810F
:100DC000CE0FD11D0FB6F894DEBF0FBECDBFED0123
:100DD0000895A29FB001B39FC001A39F700D811D14
:100DE0001124911DB29F700D811D1124911D089534
:100DF000EE0FFF1F0590F491E02D0994CF93DF9340
:100E00008230910510F482E090E0E091F201F091DF
:100E1000F30120E030E0C0E0D0E0309711F14081F4
:100E2000518148175907C0F04817590761F482816A
:100E30009381209719F09B838A832BC09093F301B1
:100E40008093F20126C02115310519F0421753078E
:100E500018F49A01BE01DF01EF010280F381E02D59
:100E6000DCCF2115310509F1281B390B2430310560
:100E700090F412968D919C9113976115710521F054
:100E8000FB019383828304C09093F3018093F2016A
:100E9000FD01329644C0FD01E20FF31F819391934F
:100EA000225031092D933C933AC02091F0013091AA
:100EB000F101232B41F42091020130910301309381
:100EC000F1012093F00120910001309101012115E1
:100ED000310541F42DB73EB7409104015091050111
:100EE000241B350BE091F001F091F101E217F307BB
:100EF000A0F42E1B3F0B2817390778F0AC014E5F8A
:100F00005F4F2417350748F04E0F5F1F5093F101D4
:100F10004093F0018193919302C0E0E0F0E0CF01B3
:100F2000DF91CF9108950F931F93CF93DF93009795
:100F300009F48CC0FC013297138212820091F201F5
:100F40001091F3010115110581F420813181820F87
:100F5000931F2091F0013091F1012817390779F59D
:100F6000F093F101E093F00171C0D80140E050E04E
:100F7000AE17BF0750F412962D913C911397AD0117
:100F80002115310509F1D901F3CF9D01DA01338330
:100F9000228360817181860F971F8217930769F4FE
:100FA000EC0128813981260F371F2E5F3F4F318397
:100FB00020838A819B8193838283452B29F4F0933C
:100FC000F301E093F20142C01396FC93EE93129763
:100FD000ED01499159919E01240F351FE217F30746
:100FE00071F480819181840F951F029611969C93D4
:100FF0008E938281938113969C938E931297E0E057
:10100000F0E0D80112968D919C911397009719F0FA
:10101000F8018C01F6CF8D919C9198012E5F3F4F86
:10102000820F931F2091F0013091F10128173907A9
:1010300069F4309729F41092F3011092F20102C082
:10104000138212821093F1010093F001DF91CF918E
:101050001F910F910895A0E0B0E0E1E3F8E00C9457
:10106000B606EC01009721F4CB010E94FE06B8C041
:10107000FC01E60FF71F9C0122503109E217F3072C
:1010800008F4ACC0D9010D911C91119706171707F0
:10109000B0F00530110508F49FC0C8010497861709
:1010A000970708F499C002501109061B170B01930A
:1010B00011936D937C93CF010E9493078DC05B01C8
:1010C000A01AB10A4C01800E911EA091F201B091BC
:1010D000F30140E050E0E12CF12C109709F44AC0F4
:1010E000A815B905D1F56D907C901197630182E048
:1010F000C80ED11CCA14DB0480F1A3014A195B0994
:101100006A0182E0C80ED11C1296BC901297139609
:10111000AC91B5E0CB16D10440F0B282A3835183E9
:101120004083D9016D937C930AC00E5F1F4FC301AA
:10113000800F911FF90191838083EB2DFA2FE11429
:10114000F10431F0D7011396FC93EE93129744C04B
:10115000F093F301E093F2013FC08D919C911197C0
:101160004817590708F4AC017D0112960D90BC9107
:10117000A02DB3CF8091F0019091F10188159905D0
:10118000E1F446175707C8F48091000190910101DE
:10119000009741F48DB79EB740910401509105012D
:1011A000841B950BE817F907C8F4F093F101E0935D
:1011B000F001F901718360830FC0CB010E94FE062C
:1011C0007C01009759F0A801BE010E940209CE01DE
:1011D0000E949307C70104C0CE0102C080E090E0E6
:1011E000CDB7DEB7EEE00C94D20681E090E0F89443
:1011F0000C9412099111089581548A5108F4805E6B
:10120000855A0895FB01DC0102C001900D92415006
:101210005040D8F70895FB01DC0101900D920020A9
:10122000E1F7089510E0CCE7D0E004C0FE010E9491
:0E123000F8062196CD37D107C9F7F894FFCF05
:10123E000000F4018000000000002A039302C202A5
:10124E007103F302D102E502506C6561736520698A
:10125E006E70757420796F757220746578743A00AB
:04126E000D0A000065
:00000001FF
