:100000000C947C000C94A4000C94A4000C94A40008
:100010000C94A4000C94A4000C94A4000C94A400D0
:100020000C94A4000C94A4000C94A4000C94A400C0
:100030000C94A4000C94A4000C94A4000C94A400B0
:100040000C9441030C94A4000C94A4000C94A40000
:100050000C94A4000C94A4000C94A4000C94A40090
:100060000C94A4000C94A4001C032503F202F802D3
:100070001803FA02FF0201031C0310030303080321
:10008000120314031A0325031C0325031C03250371
:100090001C0325031C0325031C032503000000008B
:1000A000240027002A0000000000250028002B0063
:1000B00000000000230026002900040404040404B6
:1000C0000404020202020202030303030303010207
:1000D00004081020408001020408102001020408D6
:1000E00010200000000800020100000304070000C7
:1000F0000000000000002B0411241FBECFEFD8E049
:10010000DEBFCDBF21E0AAE0B1E001C01D92AA325E
:10011000B207E1F711E0A0E0B1E0E0E9FDE002C0E4
:1001200005900D92AA30B107D9F710E0CCE7D0E0E6
:1001300004C02197FE010E94B104CB37D107C9F753
:100140000E948B030C94C6060C940000833081F04F
:1001500028F4813099F08230A1F008958730A9F019
:100160008830B9F08430D1F4809180008F7D03C055
:10017000809180008F7780938000089584B58F7779
:1001800002C084B58F7D84BD08958091B0008F77C3
:1001900003C08091B0008F7D8093B0000895CF930D
:1001A000DF934091220150912301609124017091CD
:1001B00025012FB7F8948091190190911A01A0910F
:1001C0001B01B0911C012FBF84179507A607B70725
:1001D00008F450C020911D0130E0F901EE51FF4FAD
:1001E0008491F901E253FF4FD491F901E654FF4F96
:1001F000C491CC23A1F081110E94A600EC2FF0E065
:10020000EE0FFF1FE055FF4FA591B491EC91ED2348
:1002100031E020E009F430E0832F922F02C080E02B
:1002200090E02091200130E08217930719F12FB759
:10023000F8948091190190911A01A0911B01B0913D
:100240001C012FBF20911E0130911F01820F931FAF
:10025000A11DB11D8093220190932301A09324013D
:10026000B09325018091200191E08927809320019E
:100270009093210180912001DF91CF9108951F93E8
:10028000CF93DF93282F30E0F901EE51FF4F849197
:10029000F901E253FF4FD491F901E654FF4FC491A5
:1002A000CC23C9F0162F81110E94A600EC2FF0E09C
:1002B000EE0FFF1FEA55FF4FA591B4918FB7F89449
:1002C000111105C09C91ED2FE095E92302C0EC913E
:1002D000ED2BEC938FBFDF91CF911F910895CF93BA
:1002E000DF9390E0FC01E253FF4F2491FC01E654C0
:1002F000FF4F8491882361F190E0880F991FFC01E2
:10030000E456FF4FC591D491FC01EA55FF4FA591EA
:10031000B491611109C09FB7F89488812095822318
:100320008883EC912E230BC0623061F49FB7F89460
:100330003881822F809583238883EC912E2B2C93F8
:100340009FBF06C08FB7F894E8812E2B28838FBFFC
:10035000DF91CF9108953FB7F89480911501909166
:100360001601A0911701B091180126B5A89B05C0F0
:100370002F3F19F00196A11DB11D3FBFBA2FA92F24
:10038000982F8827820F911DA11DB11DBC01CD01A1
:1003900042E0660F771F881F991F4A95D1F708958D
:1003A0008F929F92AF92BF92CF92DF92EF92FF9285
:1003B0006B017C010E94AB014B015C01C114D104B3
:1003C000E104F104F1F00E94AB01DC01CB018819DA
:1003D0009909AA09BB09883E9340A105B10570F3AC
:1003E00021E0C21AD108E108F10888EE880E83E006
:1003F000981EA11CB11CC114D104E104F10419F729
:10040000DDCFFF90EF90DF90CF90BF90AF909F90A7
:100410008F900895FC012181328143815481A3E0B2
:10042000B0E00E9460040C94D001EF92FF920F9311
:100430001F93CF93DF93EC01E12CF12C062F10E0FA
:10044000E016F106E4F461E088810E943F01298111
:100450003A814B815C81A3E0B0E00E9460040E947D
:10046000D00160E088810E943F0169817A818B819F
:100470009C810E94D0018FEFE81AF80AE1CFDF914A
:10048000CF911F910F91FF90EF900895EF92FF92FF
:100490000F931F93CF93DF93EC01E12CF12C062FE8
:1004A00010E0E016F106C4F461E088810E943F018B
:1004B00069817A818B819C810E94D00160E0888172
:1004C0000E943F0169817A818B819C810E94D001C9
:1004D0008FEFE81AF80AE5CFDF91CF911F910F91C6
:1004E000FF90EF900895EF92FF920F931F93CF9399
:1004F000DF93EC017B018A0188819981009729F0C3
:100500002A813B8124173507F8F4B8016F5F7F4FCC
:100510000E94E405009759F0998388831B830A831E
:100520002C813D81232B81F4FC0110820DC0888138
:100530009981009711F00E944C05198218821D8242
:100540001C821B821A8207C01D830C83B70188811D
:1005500099810E94BF06CE01DF91CF911F910F912B
:10056000FF90EF900895EF92FF920F931F93CF9318
:10057000DF93EC017B01FB01008111810115110565
:1005800019F400E010E014C0F80180818823C9F359
:10059000082E000C990B0E94AE06F80181938F0182
:1005A000F3CFF70180819181009749F40F5F1F4FCE
:1005B000F701848195810817190798F352C0FC014F
:1005C000E00FF11FE0818E2FEE0F990BAA0BBB0BF2
:1005D000FC01E156F109EA31F10540F7EC5CFF4F0F
:1005E0000C94B10461E0CE010E94150261E003C0E9
:1005F00061E013C062E0CE010E94460215C062E0D5
:1006000014C064E027C061E0CE010E94150214C04E
:1006100061E0CE010E94460263E0CE010E94150215
:1006200062E018C062E00DC061E0CE010E941502D8
:1006300061E010C063E005C061E0CE010E944602A7
:1006400061E0CE010E94150208C061E0CE010E9467
:10065000150263E0CE010E944602CE010E940A020A
:10066000A5CF29813A814B815C81A6E0B0E00E9450
:100670006004DF91CF911F910F91FF90EF900C9448
:10068000D0011F920F920FB60F9211242F933F9318
:100690008F939F93AF93BF938091190190911A010B
:1006A000A0911B01B0911C013091140123E0230F94
:1006B0002D3720F40196A11DB11D05C026E8230F9A
:1006C0000296A11DB11D20931401809319019093EE
:1006D0001A01A0931B01B0931C0180911501909108
:1006E0001601A0911701B09118010196A11DB11D2D
:1006F0008093150190931601A0931701B0931801F0
:10070000BF91AF919F918F913F912F910F900FBE0D
:100710000F901F901895CF93DF9300D000D000D09A
:10072000CDB7DEB7789484B5826084BD84B581602E
:1007300084BD85B5826085BD85B5816085BD8091AC
:100740006E00816080936E00109281008091810024
:10075000826080938100809181008160809381001C
:10076000809180008160809380008091B1008460DE
:100770008093B1008091B00081608093B00080913F
:100780007A00846080937A0080917A0082608093FE
:100790007A0080917A00816080937A0080917A005B
:1007A000806880937A001092C10062E080911D0100
:1007B0000E946F0100E010E00E94CF00811144C050
:1007C00080912101882309F43FC0109221010E94E9
:1007D000CF00811133C01A8219821C821B821E82B3
:1007E0001D8243E050E066E071E0CE0101960E9478
:1007F0007302BE016F5F7F4F8FE091E00E94B302F2
:1008000089819A810E944C051A8219821C821B825E
:100810001E821D8243E050E066E071E0CE01019649
:100820000E947302BE016F5F7F4F8AE091E00E94D9
:10083000B30289819A810E944C05C9CF8091210120
:10084000882349F2109221010115110509F4B4CF52
:100850000E940000B1CFCF92DF92EF92FF92EDE1C4
:10086000F1E082E0808384EF91E09283818381E0F4
:1008700083831482158216821782108661E08DE0D0
:100880000E946F01EFE0F1E08DE0808388ECC82EDC
:10089000D12CE12CF12CC182D282E382F48261E07E
:1008A0008AE00E946F01EAE0F1E08AE08083C18281
:1008B000D282E382F482FF90EF90DF90CF90089590
:1008C0000E94A204A59F900DB49F900DA49F800D3F
:1008D000911D112408952F923F924F925F926F9233
:1008E0007F928F929F92AF92BF92CF92DF92EF92C0
:1008F000FF920F931F93CF93DF93CDB7DEB7CA1B41
:10090000DB0B0FB6F894DEBF0FBECDBF09942A886B
:10091000398848885F846E847D848C849B84AA8413
:10092000B984C884DF80EE80FD800C811B81AA81A0
:10093000B981CE0FD11D0FB6F894DEBF0FBECDBF6B
:10094000ED010895A29FB001B39FC001A39F700D58
:10095000811D1124911DB29F700D811D1124911DC7
:100960000895EE0FFF1F0590F491E02D0994CF93A9
:10097000DF938230910510F482E090E0E09128014D
:10098000F091290120E030E0C0E0D0E0309711F193
:100990004081518148175907C0F04817590761F441
:1009A00082819381209719F09B838A832BC0909337
:1009B00029018093280126C02115310519F042171D
:1009C000530718F49A01BE01DF01EF010280F381A1
:1009D000E02DDCCF2115310509F1281B390B24301E
:1009E000310590F412968D919C91139761157105C4
:1009F00021F0FB019383828304C0909329018093AB
:100A00002801FD01329644C0FD01E20FF31F8193DE
:100A10009193225031092D933C933AC020912601A5
:100A200030912701232B41F42091020130910301E1
:100A3000309327012093260120910001309101017C
:100A40002115310541F42DB73EB740910401509175
:100A50000501241B350BE0912601F0912701E217D7
:100A6000F307A0F42E1B3F0B2817390778F0AC01D1
:100A70004E5F5F4F2417350748F04E0F5F1F5093AE
:100A80002701409326018193919302C0E0E0F0E0BA
:100A9000CF01DF91CF9108950F931F93CF93DF93F1
:100AA000009709F48CC0FC013297138212820091E6
:100AB0002801109129010115110581F4208131814E
:100AC000820F931F209126013091270128173907A3
:100AD00079F5F0932701E093260171C0D80140E039
:100AE00050E0AE17BF0750F412962D913C9113972A
:100AF000AD012115310509F1D901F3CF9D01DA01CD
:100B00003383228360817181860F971F8217930739
:100B100069F4EC0128813981260F371F2E5F3F4F82
:100B2000318320838A819B8193838283452B29F49F
:100B3000F0932901E093280142C01396FC93EE93B1
:100B40001297ED01499159919E01240F351FE2172B
:100B5000F30771F480819181840F951F029611969D
:100B60009C938E938281938113969C938E9312977C
:100B7000E0E0F0E0D80112968D919C9113970097D8
:100B800019F0F8018C01F6CF8D919C9198012E5FA0
:100B90003F4F820F931F2091260130912701281784
:100BA000390769F4309729F410922901109228012D
:100BB00002C0138212821093270100932601DF9155
:100BC000CF911F910F910895A0E0B0E0EAEEF5E01B
:100BD0000C946F04EC01009721F4CB010E94B70440
:100BE000B8C0FC01E60FF71F9C0122503109E21743
:100BF000F30708F4ACC0D9010D911C9111970617A9
:100C00001707B0F00530110508F49FC0C80104971C
:100C10008617970708F499C002501109061B170B95
:100C2000019311936D937C93CF010E944C058DC06D
:100C30005B01A01AB10A4C01800E911EA0912801FF
:100C4000B091290140E050E0E12CF12C109709F41B
:100C50004AC0A815B905D1F56D907C901197630134
:100C600082E0C80ED11CCA14DB0480F1A3014A192A
:100C70005B096A0182E0C80ED11C1296BC901297E3
:100C80001396AC91B5E0CB16D10440F0B282A383A9
:100C900051834083D9016D937C930AC00E5F1F4F2F
:100CA000C301800F911FF90191838083EB2DFA2FEF
:100CB000E114F10431F0D7011396FC93EE931297EF
:100CC00044C0F0932901E09328013FC08D919C918D
:100CD00011974817590708F4AC017D0112960D9041
:100CE000BC91A02DB3CF809126019091270188154A
:100CF0009905E1F446175707C8F4809100019091D7
:100D00000101009741F48DB79EB7409104015091C5
:100D10000501841B950BE817F907C8F4F093270128
:100D2000E0932601F901718360830FC0CB010E941B
:100D3000B7047C01009759F0A801BE010E94B606D5
:100D4000CE010E944C05C70104C0CE0102C080E064
:100D500090E0CDB7DEB7EEE00C948B0491110895CE
:100D600081548A5108F4805E855A0895FB01DC01A4
:100D700002C001900D9241505040D8F70895FB01F8
:100D8000DC0101900D920020E1F70895F894FFCF67
:0A0D900000002A018000736F730059
:00000001FF
