:100000000C9477000C949F000C949F000C949F001C
:100010000C949F000C949F000C949F000C949F00E4
:100020000C949F000C949F000C949F000C949F00D4
:100030000C949F000C949F000C949F000C949F00C4
:100040000C943D020C949F000C949F000C949F0014
:100050000C949F000C949F000C949F000C949F00A4
:100060000C949F000C949F001B022202F701FC01DC
:100070001702FE01020204021B02100206020A021B
:1000800012021402190222021B0222021B02220285
:100090001B0222021B0222021B022202000000009D
:1000A000240027002A0000000000250028002B0063
:1000B000040404040404040402020202020203030E
:1000C0000303030301020408102040800102040816
:1000D00010200102040810200000000800020100A6
:1000E00000030407000000000000000011031124B9
:1000F0001FBECFEFD8E0DEBFCDBF21E0A2E1B1E06F
:1001000001C01D92A432B207E1F711E0A0E0B1E016
:10011000E8E4FBE002C005900D92A231B107D9F7E7
:1001200010E0C7E7D0E004C02197FE010E948D03D4
:10013000C637D107C9F70E9487020C94A2050C9418
:10014000000090E0FC01E852FF4F3491FC01EC53B9
:10015000FF4F2491FC01E055FF4FE491EE2309F499
:100160003BC0332339F1333091F038F43130A9F00A
:10017000323001F584B58F7D12C0373091F03830C0
:10018000A1F03430B9F4809180008F7D03C080915C
:1001900080008F77809380000DC084B58F7784BDF9
:1001A00009C08091B0008F7703C08091B0008F7D2F
:1001B0008093B000F0E0EE0FFF1FEA55FF4FA591CE
:1001C000B4918FB7F894EC91611103C020952E2360
:1001D00001C02E2B2C938FBF08953FB7F8948091C8
:1001E000170190911801A0911901B0911A0126B53B
:1001F000A89B05C02F3F19F00196A11DB11D3FBF5F
:10020000BA2FA92F982F8827820F911DA11DB11DEC
:10021000BC01CD0142E0660F771F881F991F4A95E8
:10022000D1F708958F929F92AF92BF92CF92DF92B3
:10023000EF92FF926B017C010E94ED004B015C018B
:10024000C114D104E104F104F1F00E94ED00DC01DD
:10025000CB0188199909AA09BB09883E9340A105D9
:10026000B10570F321E0C21AD108E108F10888EE67
:10027000880E83E0981EA11CB11CC114D104E104B6
:10028000F10419F7DDCFFF90EF90DF90CF90BF9092
:10029000AF909F908F90089520911C0130911D0187
:1002A00040911E0150911F01A3E0B0E00E943C0369
:1002B0000C9412010F931F93CF93DF9300E010E093
:1002C000C82FD0E00C171D070CF561E080911B01D1
:1002D0000E94A10060911C0170911D0180911E017E
:1002E00090911F010E94120160E080911B010E9409
:1002F000A10060911C0170911D0180911E019091DF
:100300001F010E9412010F5F1F4FDCCFDF91CF91C1
:100310001F910F9108950F931F93CF93DF9300E0E8
:1003200010E0C82FD0E00C171D072CF561E080917C
:100330001B010E94A10020911C0130911D014091E0
:100340001E0150911F01A3E0B0E00E943C030E94F7
:10035000120160E080911B010E94A10060911C01CC
:1003600070911D0180911E0190911F010E94120148
:100370000F5F1F4FD8CFDF91CF911F910F9108953D
:100380000F931F93CF93DF938C01FC01C081D18128
:10039000209719F4C0E0D0E010C088818823D1F301
:1003A000082E000C990B0E948A058993F6CFF8015C
:1003B00080819181009741F42196F8018481958193
:1003C000C817D907A0F347C0FC01EC0FFD1FE0815F
:1003D0004E2FEE0F550B660B770BFA01E156F10924
:1003E000EA31F10548F7EC5CFF4F0C948D0381E096
:1003F0000E948B0181E003C081E010C082E00E9476
:100400005A0112C082E011C084E020C081E00E9445
:100410008B0111C081E00E945A0183E00E948B0190
:1004200082E014C082E00BC081E00E948B0181E079
:100430000DC083E004C081E00E945A0181E00E9467
:100440008B0106C081E00E948B0183E00E945A016B
:100450000E944C01B1CF20911C0130911D014091AF
:100460001E0150911F01A6E0B0E00E943C03DF9105
:10047000CF911F910F910C9412011F920F920FB602
:100480000F9211242F933F938F939F93AF93BF931A
:100490008091130190911401A0911501B091160162
:1004A0003091120123E0230F2D3720F40196A11D76
:1004B000B11D05C026E8230F0296A11DB11D209392
:1004C00012018093130190931401A0931501B0932E
:1004D00016018091170190911801A0911901B09116
:1004E0001A010196A11DB11D809317019093180167
:1004F000A0931901B0931A01BF91AF919F918F9171
:100500003F912F910F900FBE0F901F901895CF9392
:10051000DF9300D000D000D0CDB7DEB7789484B59B
:10052000826084BD84B5816084BD85B5826085BDEF
:1005300085B5816085BD80916E00816080936E007D
:10054000109281008091810082608093810080916F
:100550008100816080938100809180008160809320
:1005600080008091B10084608093B1008091B000E0
:1005700081608093B00080917A00846080937A00DB
:1005800080917A00826080937A0080917A00816005
:1005900080937A0080917A00806880937A0010922C
:1005A000C10080E0E82E80E0F82E0BE010E01A8217
:1005B00019821C821B821E821D826CE070E080E02A
:1005C00090E00E94C004009759F09A8389831C83AD
:1005D0000B832D813E81232BE9F4FC0110821AC08C
:1005E00089819A81009711F00E9428041A82198249
:1005F0001E821D821C821B82CE0101960E94C001B8
:1006000089819A810E942804E114F10481F20E94F8
:100610000000CDCF1E830D8366E071E00E949B0534
:10062000EBCFE1EDF0E02491EDEBF0E08491882355
:1006300099F090E0880F991FFC01E456FF4FA591B7
:10064000B491FC01EA55FF4F859194918FB7F894CE
:10065000EC91E22BEC938FBF8DE080931B0188EC33
:1006600090E0A0E0B0E080931C0190931D01A09366
:100670001E01B0931F0108950E947E03A59F900D57
:10068000B49F900DA49F800D911D112408952F9269
:100690003F924F925F926F927F928F929F92AF9212
:1006A000BF92CF92DF92EF92FF920F931F93CF935F
:1006B000DF93CDB7DEB7CA1BDB0B0FB6F894DEBFF6
:1006C0000FBECDBF09942A88398848885F846E841C
:1006D0007D848C849B84AA84B984C884DF80EE8066
:1006E000FD800C811B81AA81B981CE0FD11D0FB66F
:1006F000F894DEBF0FBECDBFED010895A29FB001FB
:10070000B39FC001A39F700D811D1124911DB29F45
:10071000700D811D1124911D0895EE0FFF1F05908E
:10072000F491E02D0994CF93DF938230910510F47A
:1007300082E090E0E0912201F091230120E030E09E
:10074000C0E0D0E0309711F140815181481759073E
:10075000C0F04817590761F482819381209719F0FE
:100760009B838A832BC0909323018093220126C010
:100770002115310519F04217530718F49A01BE01EB
:10078000DF01EF010280F381E02DDCCF211531057F
:1007900009F1281B390B2430310590F412968D9104
:1007A0009C9113976115710521F0FB01938382835E
:1007B00004C09093230180932201FD01329644C02E
:1007C000FD01E20FF31F81939193225031092D9384
:1007D0003C933AC02091200130912101232B41F418
:1007E00020910201309103013093210120932001D7
:1007F00020910001309101012115310541F42DB7FF
:100800003EB74091040150910501241B350BE09146
:100810002001F0912101E217F307A0F42E1B3F0BFA
:100820002817390778F0AC014E5F5F4F2417350762
:1008300048F04E0F5F1F5093210140932001819398
:10084000919302C0E0E0F0E0CF01DF91CF910895F5
:100850000F931F93CF93DF93009709F48CC0FC0193
:100860003297138212820091220110912301011507
:10087000110581F420813181820F931F2091200185
:10088000309121012817390779F5F0932101E09380
:10089000200171C0D80140E050E0AE17BF0750F40E
:1008A00012962D913C911397AD012115310509F157
:1008B000D901F3CF9D01DA013383228360817181F5
:1008C000860F971F8217930769F4EC0128813981FD
:1008D000260F371F2E5F3F4F318320838A819B81F4
:1008E00093838283452B29F4F0932301E093220123
:1008F00042C01396FC93EE931297ED0149915991E2
:100900009E01240F351FE217F30771F48081918156
:10091000840F951F029611969C938E9382819381EA
:1009200013969C938E931297E0E0F0E0D801129614
:100930008D919C911397009719F0F8018C01F6CFD7
:100940008D919C9198012E5F3F4F820F931F2091B4
:100950002001309121012817390769F4309729F4D3
:10096000109223011092220102C01382128210936E
:10097000210100932001DF91CF911F910F910895E4
:10098000A0E0B0E0E6ECF4E00C944B03EC0100973F
:1009900021F4CB010E949303B8C0FC01E60FF71FBE
:1009A0009C0122503109E217F30708F4ACC0D901C9
:1009B0000D911C91119706171707B0F0053011051E
:1009C00008F49FC0C80104978617970708F499C0D8
:1009D00002501109061B170B019311936D937C9321
:1009E000CF010E9428048DC05B01A01AB10A4C01FE
:1009F000800E911EA0912201B091230140E050E0B1
:100A0000E12CF12C109709F44AC0A815B905D1F5CD
:100A10006D907C901197630182E0C80ED11CCA14BE
:100A2000DB0480F1A3014A195B096A0182E0C80E68
:100A3000D11C1296BC9012971396AC91B5E0CB16D0
:100A4000D10440F0B282A38351834083D9016D93D6
:100A50007C930AC00E5F1F4FC301800F911FF901E5
:100A600091838083EB2DFA2FE114F10431F0D7014B
:100A70001396FC93EE93129744C0F0932301E093F6
:100A800022013FC08D919C9111974817590708F496
:100A9000AC017D0112960D90BC91A02DB3CF809139
:100AA00020019091210188159905E1F44617570717
:100AB000C8F48091000190910101009741F48DB735
:100AC0009EB74091040150910501841B950BE817D6
:100AD000F907C8F4F0932101E0932001F901718333
:100AE00060830FC0CB010E9493037C01009759F0F3
:100AF000A801BE010E949205CE010E942804C701F0
:100B000004C0CE0102C080E090E0CDB7DEB7EEE0D9
:100B10000C9467039111089581548A5108F4805E02
:100B2000855A0895FB01DC0102C001900D924150ED
:100B30005040D8F70895FB01DC0101900D92002090
:080B4000E1F70895F894FFCFDE
:100B480000002401800048656C6C6F20576F726C40
:020B5800640037
:00000001FF
